:100000006F009032000000004A0100004C01000027
:1000100000000000000000000000000000000000E0
:1000200000000000000000000000000000000000D0
:10003000260B000000000000260B0000000000005E
:10004000260B0000260B0000260B0000260B0000EC
:10005000260B0000260B0000260B0000260B0000DC
:10006000260B0000260B0000260B0000260B0000CC
:10007000260B0000260B0000260B0000260B0000BC
:10008000260B0000260B0000260B0000260B0000AC
:10009000260B0000260B0000260B000000000000CD
:1000A000511126C022C206C4828282441244A24058
:1000B000310182802A86014593F6150091C232955E
:1000C00085810606F5F9828000000000634E050276
:1000D00063C305042E86AA857D5515C285466378BF
:1000E000B6006356C00006068606E36CB6FE014500
:1000F00063E4C500918D558D85820582F5FA828075
:100100008682C93F2E8582823305A04063D70500D1
:10011000B305B040C1B7B305B0408682653F330533
:10012000A0408282868263C70500634905005D376F
:100130002E858282B305B040E35B05FE3305A04007
:10014000513F3305B0408282000001A0B707EFBEE7
:1001500037E700E0938707083CC701A0EFF25FF4A0
:1001600037540040956413040440B705020022850B
:10017000EF00F04619E105450DBFFD14FDF4014502
:10018000E5BFEFF2FFF1B70400103754004093854C
:10019000044013050440EF00904419C593850440C2
:1001A00013050440EF00D046B70400103754004058
:1001B0009385041013050440EF00704219C5938520
:1001C000041013050440EF00B044B7040010375486
:1001D00000409385042013050440EF00504019C5EA
:1001E0009385042013050440EF0090427DBDEFF29B
:1001F0003FEB611195672AC23EC0924537540040DB
:1002000013050440EF00503CAA8419C1854481A025
:10021000B70700109385074013050440EF00303CFA
:100220001DE5B70700109385071013050440EF0084
:10023000103B11EDB707001093850720130504400C
:10024000EF00F03909E58247FD173EC0DDF726854E
:100250002101A1BDEFF2DFE4113715C5375400408D
:10026000130504408545EF00702F37050300050591
:10027000BD3F19E937550040130505408545EF009E
:10028000902F0137014515B513050440014693052C
:10029000400BEF0050323705070013052508813F5A
:1002A00071D90545CDB7EFF2BFDF611189E5814412
:1002B00026852101DDBB2EC0AA84693F6DD9B70711
:1002C000001015679387070837540040BE85130553
:1002D00004403AC2EF00B030B70700109387070818
:1002E000124725CD1305044093F5F40FEF00F02BD2
:1002F0003705070013054508DD3D35C113050440EA
:100300008545EF00B025B704030013851400C535FB
:1003100039C51305044005469305400BEF00B0298D
:1003200013852400E93505CD814513050440EF0010
:100330003026854513050440EF00F023138504049F
:100340007D35AA84854711CD13050440EF00302682
:100350008247854488A3854729A07D1735F78144C6
:100360008147375400408545130504403EC0EF00E7
:100370003022824791E7854513050440EF00B01F06
:10038000F13BE39704F2F53B25B7EFF27FD1611122
:100390009374F50F2E844482CC826D3D21C53707BE
:1003A0000010956713070708B756004013850640ED
:1003B000BA853EC0EF00B022B756004015E582472F
:1003C0003707001013070708FD17F9FF19A07D175D
:1003D00005EF37550040130505408545EF00B0197E
:1003E0004D3301452101D1B113850640A685EF00AB
:1003F000D01B3705070013054508D53B79D9B7074A
:100400000010156793870708B7540040BE85138511
:1004100004403AC0EF00B01CB707001093870708EC
:10042000024755D513850440A285EF001018370503
:10043000070013054508653B49DD138504408545E4
:10044000EF007013054579BFEFF29FC59375F50F67
:100450000545253F99B9EFF2BFC4937575000D4569
:100460002D37A1B19D4763E9A700EFF27FC393F554
:10047000F50F1105193F15B901458280EFF25FC2F2
:10048000154481452285113711C50504B147E31A8A
:10049000F4FE054519B909CD1E2191E385473707BB
:1004A00000202310F7003A21B70700202391E7002E
:1004B000828009C5B70700202392A7008280EFF24F
:1004C0003FBE85453145D135CDB6EFF27FBD814583
:1004D0003145653DD9BEEFF2BFBCAA8509457535EA
:1004E000E9B6B707002083C7070489E70145828082
:1004F000014565BEEFF2DFBA1545B93775D9B707C3
:10050000002003C51704C13F65D5553FDDB7EFF2A5
:100510003FB90145C93711C14D3F41BEEFF25FB848
:10052000AA8571459D3551B6EFF29FB79305600BD3
:100530006945A13D9DBEEFF2BFB63704002013040C
:1005400044041C4085440545638697000145ED3D04
:1005500019E1014599BE1545EF007031F13775D9A4
:100560001945D53D7DD51545C53565D504C005452D
:10057000D5B7EFF2FFB2611109E5014422852101EF
:100580002DB62E84FDD9B707002003A74704854761
:10059000AA846311F70637450F00A68513050524C5
:1005A000153E935715003EC0B7070020AA8503D516
:1005B000070093175500898F8A07AA97139537006C
:1005C00085473EC26364B50031362AC29317840161
:1005D000E18763D407001304F00781449247639EC8
:1005E000F400B707002003D52700054441D9EF00E8
:1005F000102869B7893745F149B72285E93D35DDCE
:100600000245EF0030230145F93525D9024585041F
:10061000EF005022E1B7B1C5EFF29FA8B707002065
:1006200003D747009387470019E305479AA39A2306
:10063000BA8763F3E500AE8793960701C18293976B
:1006400076002A84958F13551700AA97054563E510
:10065000E700BA853E85BD3C9375F50F2285113FB5
:10066000A9B401458280EFF2BFA3930560036945F9
:10067000293B6FF09FA319E101458280EFF25FA251
:100680001841854771112A846311F706713D09E508
:10069000014511016FF07FA10844753B75D99305A1
:1006A00031007145A3010100FD3E19E1D557DC8100
:1006B00088815C20137505FC93F7F7035D8DC88175
:1006C000B13D79D55C30139787016187635407008A
:1006D0009307F00737070020A300F704B7070020AF
:1006E00005472380E70405456DB7B53F4DB7EFF2E9
:1006F0003F9B1301C1FD2AC22EC04545854502C45A
:1007000002C602C802CA02CC02CE02D0EF00407C70
:10071000854537052000EF00807D0D449146F1446A
:100720002C0037150140748426C822C65D298946ED
:100730002C0037150140748426C822C65D21A146CD
:1007400074842C00C1463715014036C822C6512991
:10075000A1453715014021238247124737540040F5
:10076000FC86930700403ACAFC8737070040916730
:100770004C08130504403ACC2310F102DD218545D5
:1007800013050440C123130141026FF01F92EFF2E1
:100790003F9161111D26EF00B006371507001305C4
:1007A0000580EF007010B707002083A5870137157B
:1007B000000013054576EF00F0723929AA85371538
:1007C000000013054577EF00F071371500001305A1
:1007D0004578EF007073616581451305056A013F37
:1007E000B71700001385C77AEF001072056513056F
:1007F0008538C13105651305057671392D3B85476F
:10080000630FF504371500001305057DEF00D06F69
:100810003725000013054582EF00106F05651305AD
:100820004575913D854711446306F50A372500005B
:1008300013050584EF00506D372500001305058969
:10084000EF00906C014509318547AA84630EF508D5
:10085000372500001305058BEF00106B51B70964B5
:100860001304849581441E203A20A6853E863EC00E
:10087000B7170000BA861385C77E3AC2EF009066AC
:10088000824712473E85BA85793385476308F5006C
:100890003725000013058580EF0010671305800CD5
:1008A000EF00E07C1104ADF4854475BF1305001919
:1008B000EF00E07BA9396307950037250000130599
:1008C00085878DBF7D141305C0121374F40FEF00DC
:1008D000007A3DD039318547AA84E309F5FC3725F4
:1008E00000001305C585B9B71545EF0040782D39CF
:1008F0002A8463079500372500001305458CA9BF9E
:100900001945913E63078500372500001305858D45
:10091000A1B709641304C4949304C4000C400145B6
:10092000913605476307E500372500001305C58E9E
:1009300025B72AC0A13682476307F5003725000096
:100940001305459011BF2AC09D3E02476307E5008D
:10095000372500001305C59101B72AC0130580256E
:10096000EF00E0709D3682476307F50037250000F1
:1009700013054593D5B51305C0121104EF00206F80
:10098000E39E84F8B1BDEFF2AFF1371402401C4092
:100990003707FFF8611193E717001CC05C40414521
:1009A000F98F5CC01C403707F7FE7D17F98F1CC01C
:1009B0001C403707FCFF7D17F98F1CC05C40417756
:1009C0007D17F98F5CC0B7079F001CC481291C4CA0
:1009D0003706020093E707021CCCB717014003A7B4
:1009E0000740938607401377F7F023A0E74003A75B
:1009F00007401367070823A0E74089479CCA02C045
:100A000002C21C4C37070140A16693E717001CCCBB
:100A10005C43D58F5CC31C404167B7160240D98F39
:100A20001CC009679C42F18F3EC2824785073EC0C9
:100A3000924781E78247E397E7FEB71702409C435E
:100A40001397E7006359070685473EC2124785475B
:100A50006310F706B72702409843C176FD16719BD5
:100A600098C398431367170098C3B7170240D84339
:100A7000D8C3D843758FD8C3D843C166558FD8C360
:100A80009843B7060001558F98C3984393166700A3
:100A9000E3DD06FED843B7160240719BD8C3D843A6
:100AA00013672700D8C32147DC42B18BE39EE7FEE2
:100AB00021016FF08FDF02C251BFEFF26FDE3717F7
:100AC00002405C43370400209146B18B130484013B
:100AD0006385D700A1466382D704B7376E01938739
:100AE00007601CC0B7160240DC420840918313F730
:100AF000F700B707002093878700BA978C23DC4262
:100B000093F5F50F93F707083357B50081E7EFF03A
:100B10006FDC2A8718C06FF04FD95C43B777DC02CF
:100B2000938707C07DBF01A097010020938181D1E9
:100B3000138101FC1305000A97F5FF1F9385854C6F
:100B400017F6FF1F1306064C63FAC5008322050043
:100B500023A0550011059105E3EAC5FE1715000015
:100B60001305C5E097F5FF1F9385C54917F6FF1FCD
:100B70001306464D63FAC5008322050023A05500E5
:100B800011059105E3EAC5FE17F5FF1F1305854B17
:100B90009385C1806377B500232005001105E36DBF
:100BA000B5FEB722000093820288739002308D4216
:100BB0007390428097F2FFFF9382C24493E2320027
:100BC00073905230EFF03FDC97020000938262BCDA
:100BD0007390123473002030B7F7FF1F03A5477CD2
:100BE0008280944593F7060193F2F60081C7DC41B9
:100BF000B3E2F20083D3050093F7F30FA5C30323F9
:100C00000500611122C226C08147130480029304AB
:100C1000800405473316F70033F7C3006312E6027A
:100C2000939527003D473317B7001347F7FF3373FA
:100C30006700B395B20033E36500639D860050C939
:100C400085072147E397E7FC12442320650082448F
:100C500021018280E39696FE10C9DDB782800CC91F
:100C60008280EFF2EFC3111146212A8428002EC0A2
:100C70007D2AC246C204C18093F404FCB7450F002C
:100C8000938505243685C20436C2C180EFF08FC437
:100C9000458D420541814AA01E209246C207C1836C
:100CA000F99BC207C1831EA082479043E1679387E7
:100CB000076A9315160063E6C7043685EFF08FC107
:100CC000AA874205418191466373D50091471395E8
:100CD000070141814AAC1E20024793E717001EA07E
:100CE0001E2056233227C207C183D18E93F757BFE8
:100CF000D58F1EA016275E27D58F1EA471016FF019
:100D0000CFBA8247EA23B167FD176310F502B295A7
:100D10003685EFF02FBC420541819317450199E3D9
:100D200013651500A1675D8D75B7B387C5008E0784
:100D3000B385C7003685EFF0EFB942054181916771
:100D40005D8DE1BF1E2189C593E717001EA182803A
:100D5000C207C183F99BC207C183CDBF1E2189C5CC
:100D600093E707101EA18280C207C18393F7F7EFB4
:100D7000C207C183C5BF1E2189C593E707201EA1F5
:100D80008280C207C18393F7F7DFC207C183C5BF63
:100D90001E2189C593E707401EA18280C207C18337
:100DA00093F7F7BFC207C183C5BF0EA982800A2986
:100DB0001375F50F828093F7E50F19C293E71500BD
:100DC000C207C1831EA982805E290A2D42055D8D5E
:100DD0006D8D220521810D8D1335150082806111E5
:100DE00002C002C293D7C5012AC23EC08247A205F3
:100DF000A18199CB9247D1073EC2924788432101F6
:100E00006D8D3335A00082809247C181E107EDB737
:100E100093C5F5FFC205C1814EA9828037170240F4
:100E20001C430E0593F777F05D8D08C38280EFF2C7
:100E30002FA7371702405C4391462A84B18B638504
:100E4000D700A1466380D708B7376E019387076044
:100E50001CC0B7160240DC42918313F7F700B707B6
:100E6000002093870703BA978C23DC42184093F540
:100E7000F50F93F707083355B70081E73A85EFF090
:100E80006FA548C008C448C4B7170240DC438D466C
:100E9000AD83FD8B13D737008A07F18BD98F13F6FB
:100EA000370113F7370063F4C600138747FFB7070E
:100EB00000209387C701BA978C23EFF0AFA108C831
:100EC0006FF0AF9E5C43B777DC02938707C049B7EA
:100ED00099C5371702401C4F5D8D08CF8280B71728
:100EE0000240984F1345F5FF798D88CF828099C5D0
:100EF000371702405C4F5D8D48CF8280B7170240A4
:100F0000D84F1345F5FF798DC8CF8280EFF24F9906
:100F10001629F577FD17F58FF621DA252111D58FE2
:100F20001EA95625FD779387379FF58FD6212A84F2
:100F30002EC0D58F9625D58FB625D58F5EA55E2977
:100F4000C207C18393F7F7CF5D8F5AA94800C53513
:100F5000B74701409387078082456312F406C24772
:100F60005A24139517003E9542070E0541873E957A
:100F70008C41635807048605EFF0CF959305400632
:100F80002AC0EFF02F958247931445009305400641
:100F90003E85EFF0EF965E24C207C18763D5070256
:100FA0000E059305400613052503EFF0AF921D894A
:100FB000C98CC204C18006A461016FF00F8FB247D3
:100FC00045B78A0555BF120593054006130525034D
:100FD000EFF04F903D89E9BF91C55E250967D98F34
:100FE0005EA582805A25F977FD17F98FD5BF93F555
:100FF000F51F4EA182800A216D8D3335A0008280BD
:10100000EFF20F8AB707002003A58701B7157A0012
:1010100093850520EFF00F8C1375F50F2385A180C4
:1010200093175500898F8A073E950E052394A1805A
:101030006FF0AF87EFF2CF8637F400E05C40AA850F
:10104000F99B5CC003C5A180EFF0CF8608C82324BC
:1010500004001C4093E717001CC0B7F700E0D8431A
:10106000058B75DF9843799B98C36FF00F84EFF27F
:101070002F8337F400E05C40AA85F99B5CC003D560
:101080008180EFF02F8308C8232404001C4093E7DD
:1010900017001CC0B7F700E0D843058B75DF9843F5
:1010A000799B98C36FF06F80EFE29FFF2A841165F0
:1010B0001111854513050502213D930700027C802F
:1010C000371501408D473EC28A85E147130505402B
:1010D0003EC4EFF01FB122C637440140B7070800F5
:1010E0006C00130504803ECA02C8231C0100393D70
:1010F000854513050480CD3571016FE01FFBEFE2DC
:101100003FFA7111AE840144635DC402B7470140E8
:10111000138707803A859305000432C0E93DB7473D
:10112000014013870780024675D533878400830505
:101130000700138507800504C205C1814D3D0246A5
:10114000E1B7328511016FE05FF6411106C62EC08E
:101150000DCD1841AA8705C358417D5511CB854651
:10116000631BD70098472300070023A2070005450B
:10117000B240410182809847824614A398470507F0
:1011800098C7D8437D17D8C3DDB705468A85853F04
:10119000F9BF011122CC2EC206CE26CA2A8481476D
:1011A00093050002634506029245BE9583850500BE
:1011B0008DE563D8C70263D4E702198E13050002D8
:1011C00093F526002AC089C501E7930500032EC0C8
:1011D000858A814495EAB2840DA08507F1B71D8EFA
:1011E000F1BF0146E1BF824522853AC832C63EC4FE
:1011F000A93FA24732464247FD14E34690FEB2841F
:10120000635306008144058E63C7E702A6879246B2
:101210003387974036978305070095EDB284634482
:101220009004635306000146F2406244D244330501
:10123000F600056182801D8FBA8793050003228521
:1012400032C83EC63AC41137B24722474246FD175C
:10125000EDF7BA9465BF228532C63EC4FD35A2477C
:10126000324685076DB78245228532C43EC2F13DC4
:10127000FD142246924765B7397106DE22DC26DA74
:101280003EC232833A8689ED9246930700030147B6
:101290006C08FC86FD3DF2506254D254216182807C
:1012A000AA843684AE8791CA294701446317E300B4
:1012B00063D50500B307B04005448646A309010283
:1012C00013073103938666FC36C49A853E8532CA7D
:1012D0003AC81AC63EC0EFE0BFE2A5468247324395
:1012E0004247524663D4A600A2463695130505032D
:1012F0009306F7FFA30FA7FE9A853E8532CC3ACA24
:101300001AC83EC636C0EFE0FFDCB2474243524740
:10131000624663F9670401CC29CA9247898BB1C739
:101320009305D002268532C40D3522467D1692479C
:10133000918B95C306479307100632C493050003AB
:101340002685631EF7021135930580072685F53B38
:101350002246090479161647924682452685153D90
:10136000229515BFAA8702478DB782469307D00200
:101370000144A38FF6FE9307E7FF3EC04DBFF13354
:1013800093058005E1B70145828001458280130104
:1013900081FD22D026CE06D22AC4AE82328402C675
:1013A00081448385020089EDA24781C781453E853E
:1013B000693B925002542685F244130181028280D7
:1013C000930750026388F500224516C88504B53B93
:1013D000C24239A88387120013871200639CB700AA
:1013E0002245930550023AC88D3342478504BA829C
:1013F000850245BFD5DB9306B0026389D70463C875
:10140000F600930630026386D704814705A0930651
:10141000D002638AD70093060003E398D7FE1387B0
:101420002200894721A013872200854783060700F1
:101430001306B0026383C6046341D602130630026A
:10144000638BC602BA820145A54681A0138722009C
:101450006DBF138722009147D1BF1306D002638965
:10146000C60013060003E39FC6FC93E7270031A0E4
:1014700005078547C1BF93E747000507E1B7131686
:101480002500329506053A9585020386020013076A
:1014900006FD9375F70FE3F4B6FE1307E0029946D5
:1014A000631EE60085028146A545038602001306F9
:1014B00006FD1377F60F63F5E50236C603870200D3
:1014C0001306A006630DC70A6343E6021306C004B1
:1014D0006307C70A13068006630CC70881452DA859
:1014E00013972600BA968606B29685027DBF13062C
:1014F00040076306C7081306A0076302C708130660
:10150000C0068145631AC700038612008D45631427
:10151000E6008502914585020386020093030006DA
:101520001307100663C4C300130710049303700667
:1015300063C4C3069303500663557618930370047F
:1015400063C1C30493055004635DB61613073004EA
:10155000E310E6EA18409303440016CA230CE100A6
:101560001EC8A30C01000147BE862A862C0849A884
:10157000038612008145E311E6FA890271BF8502F4
:10158000B1BF93063006E307D6FC63CFC6069306C9
:1015900080056303D602A9BD930630076304D60411
:1015A00063CBC6029306F0066304D60E93060007CB
:1015B00093E74700E31ED6E291466391D50C93036F
:1015C00084000C40504016CA3AC23EC01EC8AA87CA
:1015D0000147C14681A893065007630AD6069306C1
:1015E000800745BF1840B726000093034400938549
:1015F000069611C3BA85324716CA1EC8BE862A8609
:101600002245EFF01FB90DA091466394D5029303D4
:1016100084000C40504016CA3AC23EC01EC8AA8779
:101620000547A94622458533C243AA941E84D24267
:10163000C1B3B2460C4016C836C23AC011042A875C
:10164000854629462245EFF03FC3AA9451B39146FF
:10165000639DD500930384000C40504016CA3AC2E3
:101660003EC01EC8AA8701476DBFB2460C4016C8CF
:1016700036C23AC011042A878146E1B7B24616C87D
:101680000C40414636C23AC011042A8781465DBFEC
:101690009146639ED500930384000C40504016CAC7
:1016A0003AC23EC01EC8AA870147A146A5BFB2469E
:1016B0000C4016C836C23AC011042A87814621461A
:1016C00051B70C401306840040403AC22A87224595
:1016D00032C83EC02286B687A94616CA7D31AA9472
:1016E0004244B1B71301C1FD2EC832CAAA85100801
:1016F000014506C636CC3ACE3ED032C0EFF03FC9E7
:10170000B240130141028280411122C426C206C6A2
:101710001C21AA840144DC8183073100050499EF70
:10172000A9479305310005460145DC81EFF03F9D57
:101730002285B240224492444101828005469305AD
:1017400031000145EFF0BF9BB38784009C23DC810F
:10175000E1B700000100000020500000060000007A
:10176000F401000053797374656D436C6B3A256422
:101770000D0A00004368697049443A253038780DF5
:101780000A00000044525632363035206C6F772DF7
:101790006C6576656C20667265712F616D706C6921
:1017A000747564652064656D6F0D00000D0A5B44FF
:1017B000656D6F5D204672657175656E6379202B6E
:1017C00020566F6C746167652073776565700D00D6
:1017D0005265616C74696D652070726570617265C7
:1017E000206661696C65640D00000000546F6E65D1
:1017F000202575202D3E20257520487A202F202574
:1018000075206D560D0A0000467265712F566F6C7B
:1018100074616765206472697665206661696C65CC
:10182000640D00000D0A5B44656D6F5D20436F6EB3
:1018300074696E756F75732070756C7365730D00C8
:10184000436F6E74696E756F757320636F6E666932
:1018500067206661696C65640D00000053746172F5
:101860007420636F6E74696E756F7573206661693D
:101870006C65640D0000000053746F7020636F6E20
:1018800074696E756F7573206661696C65640D00AF
:101890000D0A5B44656D6F5D20524F4D207365717D
:1018A00075656E636520706C61796261636B0D00B4
:1018B000536574206D6F6465206661696C65640DA5
:1018C0000000000053656C656374204C5241206633
:1018D00061696C65640D0000536574206C69627207
:1018E000617279206661696C65640D0053657420CE
:1018F00077617665666F726D206661696C65640DEF
:1019000000000000436C6561722077617665666F48
:10191000726D206661696C65640D000053746172BC
:101920007420706C61796261636B206661696C65BB
:10193000640D000053746F7020706C617962616394
:101940006B206661696C65640D0000000100000099
:10195000080000003100000096008813C8008813BA
:08196000286E756C6C29000073
:1019680020032C0188130000010203040506070860
:101978000102030405060708006CDC0202040608DD
:1019880004080C10081018201020304020406080F7
:1019980001020304050607080102030405060708F7
:00000001FF
